{
  "_format": "hh-sol-artifact-1",
  "contractName": "Tree",
  "sourceName": "contracts/Tree.sol",
  "abi": [
    {
      "inputs": [
        {
          "internalType": "string",
          "name": "_name",
          "type": "string"
        },
        {
          "internalType": "string",
          "name": "_symbol",
          "type": "string"
        },
        {
          "internalType": "contract ISuperfluid",
          "name": "host",
          "type": "address"
        },
        {
          "internalType": "contract ISuperToken",
          "name": "acceptedToken",
          "type": "address"
        }
      ],
      "stateMutability": "nonpayable",
      "type": "constructor"
    },
    {
      "inputs": [],
      "name": "InvalidAgreement",
      "type": "error"
    },
    {
      "inputs": [],
      "name": "InvalidToken",
      "type": "error"
    },
    {
      "inputs": [],
      "name": "Unauthorized",
      "type": "error"
    },
    {
      "anonymous": false,
      "inputs": [
        {
          "indexed": true,
          "internalType": "address",
          "name": "owner",
          "type": "address"
        },
        {
          "indexed": true,
          "internalType": "address",
          "name": "approved",
          "type": "address"
        },
        {
          "indexed": true,
          "internalType": "uint256",
          "name": "tokenId",
          "type": "uint256"
        }
      ],
      "name": "Approval",
      "type": "event"
    },
    {
      "anonymous": false,
      "inputs": [
        {
          "indexed": true,
          "internalType": "address",
          "name": "owner",
          "type": "address"
        },
        {
          "indexed": true,
          "internalType": "address",
          "name": "operator",
          "type": "address"
        },
        {
          "indexed": false,
          "internalType": "bool",
          "name": "approved",
          "type": "bool"
        }
      ],
      "name": "ApprovalForAll",
      "type": "event"
    },
    {
      "anonymous": false,
      "inputs": [
        {
          "indexed": true,
          "internalType": "address",
          "name": "previousOwner",
          "type": "address"
        },
        {
          "indexed": true,
          "internalType": "address",
          "name": "newOwner",
          "type": "address"
        }
      ],
      "name": "OwnershipTransferred",
      "type": "event"
    },
    {
      "anonymous": false,
      "inputs": [
        {
          "indexed": true,
          "internalType": "address",
          "name": "receiver",
          "type": "address"
        }
      ],
      "name": "ReceiverChanged",
      "type": "event"
    },
    {
      "anonymous": false,
      "inputs": [
        {
          "indexed": true,
          "internalType": "address",
          "name": "from",
          "type": "address"
        },
        {
          "indexed": true,
          "internalType": "address",
          "name": "to",
          "type": "address"
        },
        {
          "indexed": true,
          "internalType": "uint256",
          "name": "tokenId",
          "type": "uint256"
        }
      ],
      "name": "Transfer",
      "type": "event"
    },
    {
      "anonymous": false,
      "inputs": [
        {
          "indexed": false,
          "internalType": "address",
          "name": "gardener",
          "type": "address"
        },
        {
          "indexed": false,
          "internalType": "uint256",
          "name": "tokenId",
          "type": "uint256"
        },
        {
          "indexed": false,
          "internalType": "uint256",
          "name": "amountWatered",
          "type": "uint256"
        },
        {
          "indexed": false,
          "internalType": "uint256",
          "name": "totalGrowth",
          "type": "uint256"
        },
        {
          "indexed": false,
          "internalType": "uint8",
          "name": "maxGrowth",
          "type": "uint8"
        }
      ],
      "name": "Watered",
      "type": "event"
    },
    {
      "anonymous": false,
      "inputs": [
        {
          "indexed": false,
          "internalType": "address",
          "name": "gardener",
          "type": "address"
        },
        {
          "indexed": false,
          "internalType": "uint256",
          "name": "tokenId",
          "type": "uint256"
        },
        {
          "indexed": false,
          "internalType": "uint256",
          "name": "amountWon",
          "type": "uint256"
        }
      ],
      "name": "Winner",
      "type": "event"
    },
    {
      "anonymous": false,
      "inputs": [
        {
          "indexed": false,
          "internalType": "uint256",
          "name": "tokenId",
          "type": "uint256"
        },
        {
          "indexed": false,
          "internalType": "uint256",
          "name": "amountWon",
          "type": "uint256"
        }
      ],
      "name": "WithdrawWinnings",
      "type": "event"
    },
    {
      "inputs": [],
      "name": "_receiver",
      "outputs": [
        {
          "internalType": "address",
          "name": "",
          "type": "address"
        }
      ],
      "stateMutability": "view",
      "type": "function"
    },
    {
      "inputs": [
        {
          "internalType": "contract ISuperToken",
          "name": "_superToken",
          "type": "address"
        },
        {
          "internalType": "address",
          "name": "_agreementClass",
          "type": "address"
        },
        {
          "internalType": "bytes32",
          "name": "",
          "type": "bytes32"
        },
        {
          "internalType": "bytes",
          "name": "",
          "type": "bytes"
        },
        {
          "internalType": "bytes",
          "name": "",
          "type": "bytes"
        },
        {
          "internalType": "bytes",
          "name": "_ctx",
          "type": "bytes"
        }
      ],
      "name": "afterAgreementCreated",
      "outputs": [
        {
          "internalType": "bytes",
          "name": "newCtx",
          "type": "bytes"
        }
      ],
      "stateMutability": "nonpayable",
      "type": "function"
    },
    {
      "inputs": [
        {
          "internalType": "contract ISuperToken",
          "name": "_superToken",
          "type": "address"
        },
        {
          "internalType": "address",
          "name": "_agreementClass",
          "type": "address"
        },
        {
          "internalType": "bytes32",
          "name": "",
          "type": "bytes32"
        },
        {
          "internalType": "bytes",
          "name": "",
          "type": "bytes"
        },
        {
          "internalType": "bytes",
          "name": "",
          "type": "bytes"
        },
        {
          "internalType": "bytes",
          "name": "_ctx",
          "type": "bytes"
        }
      ],
      "name": "afterAgreementTerminated",
      "outputs": [
        {
          "internalType": "bytes",
          "name": "newCtx",
          "type": "bytes"
        }
      ],
      "stateMutability": "nonpayable",
      "type": "function"
    },
    {
      "inputs": [
        {
          "internalType": "contract ISuperToken",
          "name": "_superToken",
          "type": "address"
        },
        {
          "internalType": "address",
          "name": "_agreementClass",
          "type": "address"
        },
        {
          "internalType": "bytes32",
          "name": "",
          "type": "bytes32"
        },
        {
          "internalType": "bytes",
          "name": "",
          "type": "bytes"
        },
        {
          "internalType": "bytes",
          "name": "",
          "type": "bytes"
        },
        {
          "internalType": "bytes",
          "name": "_ctx",
          "type": "bytes"
        }
      ],
      "name": "afterAgreementUpdated",
      "outputs": [
        {
          "internalType": "bytes",
          "name": "newCtx",
          "type": "bytes"
        }
      ],
      "stateMutability": "nonpayable",
      "type": "function"
    },
    {
      "inputs": [
        {
          "internalType": "address",
          "name": "to",
          "type": "address"
        },
        {
          "internalType": "uint256",
          "name": "tokenId",
          "type": "uint256"
        }
      ],
      "name": "approve",
      "outputs": [],
      "stateMutability": "nonpayable",
      "type": "function"
    },
    {
      "inputs": [
        {
          "internalType": "address",
          "name": "owner",
          "type": "address"
        }
      ],
      "name": "balanceOf",
      "outputs": [
        {
          "internalType": "uint256",
          "name": "",
          "type": "uint256"
        }
      ],
      "stateMutability": "view",
      "type": "function"
    },
    {
      "inputs": [
        {
          "internalType": "contract ISuperToken",
          "name": "",
          "type": "address"
        },
        {
          "internalType": "address",
          "name": "",
          "type": "address"
        },
        {
          "internalType": "bytes32",
          "name": "",
          "type": "bytes32"
        },
        {
          "internalType": "bytes",
          "name": "",
          "type": "bytes"
        },
        {
          "internalType": "bytes",
          "name": "",
          "type": "bytes"
        }
      ],
      "name": "beforeAgreementCreated",
      "outputs": [
        {
          "internalType": "bytes",
          "name": "",
          "type": "bytes"
        }
      ],
      "stateMutability": "view",
      "type": "function"
    },
    {
      "inputs": [
        {
          "internalType": "contract ISuperToken",
          "name": "",
          "type": "address"
        },
        {
          "internalType": "address",
          "name": "",
          "type": "address"
        },
        {
          "internalType": "bytes32",
          "name": "",
          "type": "bytes32"
        },
        {
          "internalType": "bytes",
          "name": "",
          "type": "bytes"
        },
        {
          "internalType": "bytes",
          "name": "",
          "type": "bytes"
        }
      ],
      "name": "beforeAgreementTerminated",
      "outputs": [
        {
          "internalType": "bytes",
          "name": "",
          "type": "bytes"
        }
      ],
      "stateMutability": "view",
      "type": "function"
    },
    {
      "inputs": [
        {
          "internalType": "contract ISuperToken",
          "name": "",
          "type": "address"
        },
        {
          "internalType": "address",
          "name": "",
          "type": "address"
        },
        {
          "internalType": "bytes32",
          "name": "",
          "type": "bytes32"
        },
        {
          "internalType": "bytes",
          "name": "",
          "type": "bytes"
        },
        {
          "internalType": "bytes",
          "name": "",
          "type": "bytes"
        }
      ],
      "name": "beforeAgreementUpdated",
      "outputs": [
        {
          "internalType": "bytes",
          "name": "",
          "type": "bytes"
        }
      ],
      "stateMutability": "view",
      "type": "function"
    },
    {
      "inputs": [],
      "name": "cfaV1Lib",
      "outputs": [
        {
          "internalType": "contract ISuperfluid",
          "name": "host",
          "type": "address"
        },
        {
          "internalType": "contract IConstantFlowAgreementV1",
          "name": "cfa",
          "type": "address"
        }
      ],
      "stateMutability": "view",
      "type": "function"
    },
    {
      "inputs": [
        {
          "internalType": "int96",
          "name": "a",
          "type": "int96"
        }
      ],
      "name": "flowCap",
      "outputs": [
        {
          "internalType": "uint8",
          "name": "",
          "type": "uint8"
        }
      ],
      "stateMutability": "pure",
      "type": "function"
    },
    {
      "inputs": [
        {
          "internalType": "uint256",
          "name": "tokenId",
          "type": "uint256"
        }
      ],
      "name": "getApproved",
      "outputs": [
        {
          "internalType": "address",
          "name": "",
          "type": "address"
        }
      ],
      "stateMutability": "view",
      "type": "function"
    },
    {
      "inputs": [],
      "name": "getMultiplierCapped",
      "outputs": [
        {
          "internalType": "uint8",
          "name": "",
          "type": "uint8"
        }
      ],
      "stateMutability": "view",
      "type": "function"
    },
    {
      "inputs": [
        {
          "internalType": "uint256",
          "name": "tokenId",
          "type": "uint256"
        }
      ],
      "name": "getTreeInfo",
      "outputs": [
        {
          "components": [
            {
              "internalType": "uint8",
              "name": "currentGrowth",
              "type": "uint8"
            },
            {
              "internalType": "uint8",
              "name": "maxGrowth",
              "type": "uint8"
            },
            {
              "internalType": "uint8",
              "name": "isWon",
              "type": "uint8"
            },
            {
              "internalType": "uint256",
              "name": "amountWon",
              "type": "uint256"
            }
          ],
          "internalType": "struct Tree.TreeMeta",
          "name": "treeInfo",
          "type": "tuple"
        }
      ],
      "stateMutability": "view",
      "type": "function"
    },
    {
      "inputs": [
        {
          "internalType": "address",
          "name": "owner",
          "type": "address"
        },
        {
          "internalType": "address",
          "name": "operator",
          "type": "address"
        }
      ],
      "name": "isApprovedForAll",
      "outputs": [
        {
          "internalType": "bool",
          "name": "",
          "type": "bool"
        }
      ],
      "stateMutability": "view",
      "type": "function"
    },
    {
      "inputs": [],
      "name": "name",
      "outputs": [
        {
          "internalType": "string",
          "name": "",
          "type": "string"
        }
      ],
      "stateMutability": "view",
      "type": "function"
    },
    {
      "inputs": [
        {
          "internalType": "address",
          "name": "",
          "type": "address"
        },
        {
          "internalType": "address",
          "name": "",
          "type": "address"
        },
        {
          "internalType": "uint256",
          "name": "",
          "type": "uint256"
        },
        {
          "internalType": "bytes",
          "name": "",
          "type": "bytes"
        }
      ],
      "name": "onERC721Received",
      "outputs": [
        {
          "internalType": "bytes4",
          "name": "",
          "type": "bytes4"
        }
      ],
      "stateMutability": "nonpayable",
      "type": "function"
    },
    {
      "inputs": [],
      "name": "owner",
      "outputs": [
        {
          "internalType": "address",
          "name": "",
          "type": "address"
        }
      ],
      "stateMutability": "view",
      "type": "function"
    },
    {
      "inputs": [
        {
          "internalType": "uint256",
          "name": "tokenId",
          "type": "uint256"
        }
      ],
      "name": "ownerOf",
      "outputs": [
        {
          "internalType": "address",
          "name": "",
          "type": "address"
        }
      ],
      "stateMutability": "view",
      "type": "function"
    },
    {
      "inputs": [
        {
          "internalType": "uint8",
          "name": "maxGrowth",
          "type": "uint8"
        }
      ],
      "name": "plantATree",
      "outputs": [],
      "stateMutability": "nonpayable",
      "type": "function"
    },
    {
      "inputs": [],
      "name": "renounceOwnership",
      "outputs": [],
      "stateMutability": "nonpayable",
      "type": "function"
    },
    {
      "inputs": [
        {
          "internalType": "address",
          "name": "from",
          "type": "address"
        },
        {
          "internalType": "address",
          "name": "to",
          "type": "address"
        },
        {
          "internalType": "uint256",
          "name": "tokenId",
          "type": "uint256"
        }
      ],
      "name": "safeTransferFrom",
      "outputs": [],
      "stateMutability": "nonpayable",
      "type": "function"
    },
    {
      "inputs": [
        {
          "internalType": "address",
          "name": "from",
          "type": "address"
        },
        {
          "internalType": "address",
          "name": "to",
          "type": "address"
        },
        {
          "internalType": "uint256",
          "name": "tokenId",
          "type": "uint256"
        },
        {
          "internalType": "bytes",
          "name": "data",
          "type": "bytes"
        }
      ],
      "name": "safeTransferFrom",
      "outputs": [],
      "stateMutability": "nonpayable",
      "type": "function"
    },
    {
      "inputs": [],
      "name": "sender",
      "outputs": [
        {
          "internalType": "address",
          "name": "",
          "type": "address"
        }
      ],
      "stateMutability": "view",
      "type": "function"
    },
    {
      "inputs": [
        {
          "internalType": "address",
          "name": "operator",
          "type": "address"
        },
        {
          "internalType": "bool",
          "name": "approved",
          "type": "bool"
        }
      ],
      "name": "setApprovalForAll",
      "outputs": [],
      "stateMutability": "nonpayable",
      "type": "function"
    },
    {
      "inputs": [
        {
          "internalType": "bytes4",
          "name": "interfaceId",
          "type": "bytes4"
        }
      ],
      "name": "supportsInterface",
      "outputs": [
        {
          "internalType": "bool",
          "name": "",
          "type": "bool"
        }
      ],
      "stateMutability": "view",
      "type": "function"
    },
    {
      "inputs": [],
      "name": "symbol",
      "outputs": [
        {
          "internalType": "string",
          "name": "",
          "type": "string"
        }
      ],
      "stateMutability": "view",
      "type": "function"
    },
    {
      "inputs": [
        {
          "internalType": "uint256",
          "name": "tokenId",
          "type": "uint256"
        }
      ],
      "name": "tokenURI",
      "outputs": [
        {
          "internalType": "string",
          "name": "",
          "type": "string"
        }
      ],
      "stateMutability": "view",
      "type": "function"
    },
    {
      "inputs": [
        {
          "internalType": "address",
          "name": "from",
          "type": "address"
        },
        {
          "internalType": "address",
          "name": "to",
          "type": "address"
        },
        {
          "internalType": "uint256",
          "name": "tokenId",
          "type": "uint256"
        }
      ],
      "name": "transferFrom",
      "outputs": [],
      "stateMutability": "nonpayable",
      "type": "function"
    },
    {
      "inputs": [
        {
          "internalType": "address",
          "name": "newOwner",
          "type": "address"
        }
      ],
      "name": "transferOwnership",
      "outputs": [],
      "stateMutability": "nonpayable",
      "type": "function"
    },
    {
      "inputs": [
        {
          "internalType": "uint256",
          "name": "",
          "type": "uint256"
        }
      ],
      "name": "trees",
      "outputs": [
        {
          "internalType": "uint8",
          "name": "currentGrowth",
          "type": "uint8"
        },
        {
          "internalType": "uint8",
          "name": "maxGrowth",
          "type": "uint8"
        },
        {
          "internalType": "uint8",
          "name": "isWon",
          "type": "uint8"
        },
        {
          "internalType": "uint256",
          "name": "amountWon",
          "type": "uint256"
        }
      ],
      "stateMutability": "view",
      "type": "function"
    },
    {
      "inputs": [],
      "name": "uData",
      "outputs": [
        {
          "internalType": "uint8",
          "name": "appLevel",
          "type": "uint8"
        },
        {
          "internalType": "uint8",
          "name": "callType",
          "type": "uint8"
        },
        {
          "internalType": "uint256",
          "name": "timestamp",
          "type": "uint256"
        },
        {
          "internalType": "address",
          "name": "msgSender",
          "type": "address"
        },
        {
          "internalType": "bytes4",
          "name": "agreementSelector",
          "type": "bytes4"
        },
        {
          "internalType": "bytes",
          "name": "userData",
          "type": "bytes"
        },
        {
          "internalType": "uint256",
          "name": "appAllowanceGranted",
          "type": "uint256"
        },
        {
          "internalType": "uint256",
          "name": "appAllowanceWanted",
          "type": "uint256"
        },
        {
          "internalType": "int256",
          "name": "appAllowanceUsed",
          "type": "int256"
        },
        {
          "internalType": "address",
          "name": "appAddress",
          "type": "address"
        },
        {
          "internalType": "contract ISuperfluidToken",
          "name": "appAllowanceToken",
          "type": "address"
        }
      ],
      "stateMutability": "view",
      "type": "function"
    },
    {
      "inputs": [
        {
          "internalType": "uint256",
          "name": "",
          "type": "uint256"
        }
      ],
      "name": "winners",
      "outputs": [
        {
          "internalType": "address",
          "name": "",
          "type": "address"
        }
      ],
      "stateMutability": "view",
      "type": "function"
    },
    {
      "inputs": [
        {
          "internalType": "uint256",
          "name": "tokenId",
          "type": "uint256"
        }
      ],
      "name": "withdrawFunds",
      "outputs": [],
      "stateMutability": "nonpayable",
      "type": "function"
    }
  ],
  "bytecode": "0x60a06040523480156200001157600080fd5b506040516200648338038062006483833981810160405281019062000037919062000bd1565b81818585816000908051906020019062000053929190620008c6565b5080600190805190602001906200006c929190620008c6565b5050506200008f620000836200039960201b60201c565b620003a160201b60201c565b600073ffffffffffffffffffffffffffffffffffffffff168273ffffffffffffffffffffffffffffffffffffffff1603620000cf57620000ce62000c81565b5b600073ffffffffffffffffffffffffffffffffffffffff168173ffffffffffffffffffffffffffffffffffffffff16036200010f576200010e62000c81565b5b8073ffffffffffffffffffffffffffffffffffffffff1660808173ffffffffffffffffffffffffffffffffffffffff168152505030601360006101000a81548173ffffffffffffffffffffffffffffffffffffffff021916908373ffffffffffffffffffffffffffffffffffffffff16021790555060405180604001604052808373ffffffffffffffffffffffffffffffffffffffff1681526020018373ffffffffffffffffffffffffffffffffffffffff1663b6d200de7fa9214cc96615e0085d3bb077758db69497dc2dce3b2b1e97bc93c3d18d83efd36040518263ffffffff1660e01b815260040162000206919062000ccb565b602060405180830381865afa15801562000224573d6000803e3d6000fd5b505050506040513d601f19601f820116820180604052508101906200024a919062000d2d565b73ffffffffffffffffffffffffffffffffffffffff16815250600760008201518160000160006101000a81548173ffffffffffffffffffffffffffffffffffffffff021916908373ffffffffffffffffffffffffffffffffffffffff16021790555060208201518160010160006101000a81548173ffffffffffffffffffffffffffffffffffffffff021916908373ffffffffffffffffffffffffffffffffffffffff1602179055509050508173ffffffffffffffffffffffffffffffffffffffff1663ad3915c864100000000064040000000064010000000060011717176040518263ffffffff1660e01b815260040162000347919062000d7a565b600060405180830381600087803b1580156200036257600080fd5b505af115801562000377573d6000803e3d6000fd5b5050505050506200038f60376200046760201b60201c565b50505050620010c7565b600033905090565b6000600660009054906101000a900473ffffffffffffffffffffffffffffffffffffffff16905081600660006101000a81548173ffffffffffffffffffffffffffffffffffffffff021916908373ffffffffffffffffffffffffffffffffffffffff1602179055508173ffffffffffffffffffffffffffffffffffffffff168173ffffffffffffffffffffffffffffffffffffffff167f8be0079c531659141344cd1fd0a4f28419497f9722a3daafe3b4186f6b6457e060405160405180910390a35050565b620004776200051460201b60201c565b6000620004906014620005a560201b620021d51760201c565b9050620004a96014620005b360201b620021e31760201c565b620004bb3082620005c960201b60201c565b7f32d7f94c936bc8db194cf4901b351fa2039969759b6e5799ca627b22961c77a4308260008086604051620004f595949392919062000e13565b60405180910390a162000510818330620007c260201b60201c565b5050565b620005246200039960201b60201c565b73ffffffffffffffffffffffffffffffffffffffff166200054a6200082660201b60201c565b73ffffffffffffffffffffffffffffffffffffffff1614620005a3576040517f08c379a00000000000000000000000000000000000000000000000000000000081526004016200059a9062000ed1565b60405180910390fd5b565b600081600001549050919050565b6001816000016000828254019250508190555050565b600073ffffffffffffffffffffffffffffffffffffffff168273ffffffffffffffffffffffffffffffffffffffff16036200063b576040517f08c379a0000000000000000000000000000000000000000000000000000000008152600401620006329062000f43565b60405180910390fd5b6200064c816200085060201b60201c565b156200068f576040517f08c379a0000000000000000000000000000000000000000000000000000000008152600401620006869062000fb5565b60405180910390fd5b620006a360008383620008bc60201b60201c565b6001600360008473ffffffffffffffffffffffffffffffffffffffff1673ffffffffffffffffffffffffffffffffffffffff1681526020019081526020016000206000828254620006f5919062001006565b92505081905550816002600083815260200190815260200160002060006101000a81548173ffffffffffffffffffffffffffffffffffffffff021916908373ffffffffffffffffffffffffffffffffffffffff160217905550808273ffffffffffffffffffffffffffffffffffffffff16600073ffffffffffffffffffffffffffffffffffffffff167fddf252ad1be2c89b69c2b068fc378daa952ba7f163c4a11628f55a4df523b3ef60405160405180910390a4620007be60008383620008c160201b60201c565b5050565b60006015600085815260200190815260200160002060000160006101000a81548160ff021916908360ff160217905550816015600085815260200190815260200160002060000160016101000a81548160ff021916908360ff160217905550505050565b6000600660009054906101000a900473ffffffffffffffffffffffffffffffffffffffff16905090565b60008073ffffffffffffffffffffffffffffffffffffffff166002600084815260200190815260200160002060009054906101000a900473ffffffffffffffffffffffffffffffffffffffff1673ffffffffffffffffffffffffffffffffffffffff1614159050919050565b505050565b505050565b828054620008d49062001092565b90600052602060002090601f016020900481019282620008f8576000855562000944565b82601f106200091357805160ff191683800117855562000944565b8280016001018555821562000944579182015b828111156200094357825182559160200191906001019062000926565b5b50905062000953919062000957565b5090565b5b808211156200097257600081600090555060010162000958565b5090565b6000604051905090565b600080fd5b600080fd5b600080fd5b600080fd5b6000601f19601f8301169050919050565b7f4e487b7100000000000000000000000000000000000000000000000000000000600052604160045260246000fd5b620009df8262000994565b810181811067ffffffffffffffff8211171562000a015762000a00620009a5565b5b80604052505050565b600062000a1662000976565b905062000a248282620009d4565b919050565b600067ffffffffffffffff82111562000a475762000a46620009a5565b5b62000a528262000994565b9050602081019050919050565b60005b8381101562000a7f57808201518184015260208101905062000a62565b8381111562000a8f576000848401525b50505050565b600062000aac62000aa68462000a29565b62000a0a565b90508281526020810184848401111562000acb5762000aca6200098f565b5b62000ad884828562000a5f565b509392505050565b600082601f83011262000af85762000af76200098a565b5b815162000b0a84826020860162000a95565b91505092915050565b600073ffffffffffffffffffffffffffffffffffffffff82169050919050565b600062000b408262000b13565b9050919050565b600062000b548262000b33565b9050919050565b62000b668162000b47565b811462000b7257600080fd5b50565b60008151905062000b868162000b5b565b92915050565b600062000b998262000b33565b9050919050565b62000bab8162000b8c565b811462000bb757600080fd5b50565b60008151905062000bcb8162000ba0565b92915050565b6000806000806080858703121562000bee5762000bed62000980565b5b600085015167ffffffffffffffff81111562000c0f5762000c0e62000985565b5b62000c1d8782880162000ae0565b945050602085015167ffffffffffffffff81111562000c415762000c4062000985565b5b62000c4f8782880162000ae0565b935050604062000c628782880162000b75565b925050606062000c758782880162000bba565b91505092959194509250565b7f4e487b7100000000000000000000000000000000000000000000000000000000600052600160045260246000fd5b6000819050919050565b62000cc58162000cb0565b82525050565b600060208201905062000ce2600083018462000cba565b92915050565b600062000cf58262000b33565b9050919050565b62000d078162000ce8565b811462000d1357600080fd5b50565b60008151905062000d278162000cfc565b92915050565b60006020828403121562000d465762000d4562000980565b5b600062000d568482850162000d16565b91505092915050565b6000819050919050565b62000d748162000d5f565b82525050565b600060208201905062000d91600083018462000d69565b92915050565b62000da28162000b33565b82525050565b6000819050919050565b6000819050919050565b600062000ddd62000dd762000dd18462000da8565b62000db2565b62000d5f565b9050919050565b62000def8162000dbc565b82525050565b600060ff82169050919050565b62000e0d8162000df5565b82525050565b600060a08201905062000e2a600083018862000d97565b62000e39602083018762000d69565b62000e48604083018662000de4565b62000e57606083018562000de4565b62000e66608083018462000e02565b9695505050505050565b600082825260208201905092915050565b7f4f776e61626c653a2063616c6c6572206973206e6f7420746865206f776e6572600082015250565b600062000eb960208362000e70565b915062000ec68262000e81565b602082019050919050565b6000602082019050818103600083015262000eec8162000eaa565b9050919050565b7f4552433732313a206d696e7420746f20746865207a65726f2061646472657373600082015250565b600062000f2b60208362000e70565b915062000f388262000ef3565b602082019050919050565b6000602082019050818103600083015262000f5e8162000f1c565b9050919050565b7f4552433732313a20746f6b656e20616c7265616479206d696e74656400000000600082015250565b600062000f9d601c8362000e70565b915062000faa8262000f65565b602082019050919050565b6000602082019050818103600083015262000fd08162000f8e565b9050919050565b7f4e487b7100000000000000000000000000000000000000000000000000000000600052601160045260246000fd5b6000620010138262000d5f565b9150620010208362000d5f565b9250827fffffffffffffffffffffffffffffffffffffffffffffffffffffffffffffffff0382111562001058576200105762000fd7565b5b828201905092915050565b7f4e487b7100000000000000000000000000000000000000000000000000000000600052602260045260246000fd5b60006002820490506001821680620010ab57607f821691505b602082108103620010c157620010c062001063565b5b50919050565b6080516153766200110d60003960008181610abd01528181610ba501528181610ff9015281816112480152818161197b01528181611dcf015261306201526153766000f3fe608060405234801561001057600080fd5b50600436106102065760003560e01c8063715018a61161011a578063a8aca2d5116100ad578063d86ed3e51161007c578063d86ed3e51461064f578063e86ac1d51461067f578063e985e9c5146106af578063ecf08fae146106df578063f2fde38b1461070757610206565b8063a8aca2d5146105c9578063b1e92b32146105e7578063b88d4fde14610603578063c87b56dd1461061f57610206565b80638da5cb5b116100e95780638da5cb5b1461054157806395d89b411461055f578063a22cb4651461057d578063a2fb11751461059957610206565b8063715018a6146104a45780637a508022146104ae578063884d1f40146104e1578063892b053d1461051157610206565b806323b872dd1161019d57806355586a311161016c57806355586a31146103d75780635f9e7d77146103f65780636352211e1461042657806367e404ce1461045657806370a082311461047457610206565b806323b872dd1461033f57806330d9c9151461035b57806342842e0e1461038b57806353c11f99146103a757610206565b8063095ea7b3116101d9578063095ea7b3146102a7578063150b7a02146102c3578063155dd5ee146102f3578063230dbd291461030f57610206565b806301ffc9a71461020b57806302964ff11461023b57806306fdde0314610259578063081812fc14610277575b600080fd5b61022560048036038101906102209190613535565b610723565b604051610232919061357d565b60405180910390f35b610243610805565b60405161025091906135d9565b60405180910390f35b61026161082b565b60405161026e919061368d565b60405180910390f35b610291600480360381019061028c91906136e5565b6108bd565b60405161029e91906135d9565b60405180910390f35b6102c160048036038101906102bc919061373e565b610903565b005b6102dd60048036038101906102d891906138b3565b610a1a565b6040516102ea9190613945565b60405180910390f35b61030d600480360381019061030891906136e5565b610a2e565b005b61032960048036038101906103249190613a34565b610b9f565b6040516103369190613b78565b60405180910390f35b61035960048036038101906103549190613b9a565b6110fd565b005b61037560048036038101906103709190613bed565b61115d565b6040516103829190613b78565b60405180910390f35b6103a560048036038101906103a09190613b9a565b61119a565b005b6103c160048036038101906103bc9190613a34565b6111ba565b6040516103ce9190613b78565b60405180910390f35b6103df611398565b6040516103ed929190613d29565b60405180910390f35b610410600480360381019061040b9190613bed565b6113ea565b60405161041d9190613b78565b60405180910390f35b610440600480360381019061043b91906136e5565b611427565b60405161044d91906135d9565b60405180910390f35b61045e6114d8565b60405161046b91906135d9565b60405180910390f35b61048e60048036038101906104899190613d52565b6114fe565b60405161049b9190613d8e565b60405180910390f35b6104ac6115b5565b005b6104c860048036038101906104c391906136e5565b6115c9565b6040516104d89493929190613dc5565b60405180910390f35b6104fb60048036038101906104f69190613bed565b611620565b6040516105089190613b78565b60405180910390f35b61052b60048036038101906105269190613e43565b61165d565b6040516105389190613e70565b60405180910390f35b61054961170d565b60405161055691906135d9565b60405180910390f35b610567611737565b604051610574919061368d565b60405180910390f35b61059760048036038101906105929190613eb7565b6117c9565b005b6105b360048036038101906105ae91906136e5565b6117df565b6040516105c091906135d9565b60405180910390f35b6105d161181e565b6040516105de9190613e70565b60405180910390f35b61060160048036038101906105fc9190613f23565b611832565b005b61061d600480360381019061061891906138b3565b6118ab565b005b610639600480360381019061063491906136e5565b61190d565b604051610646919061368d565b60405180910390f35b61066960048036038101906106649190613a34565b611975565b6040516106769190613b78565b60405180910390f35b610699600480360381019061069491906136e5565b611ed3565b6040516106a69190613fc3565b60405180910390f35b6106c960048036038101906106c49190613fde565b611f67565b6040516106d6919061357d565b60405180910390f35b6106e7611ffb565b6040516106fe9b9a99989796959493929190614058565b60405180910390f35b610721600480360381019061071c9190613d52565b612152565b005b60007f80ac58cd000000000000000000000000000000000000000000000000000000007bffffffffffffffffffffffffffffffffffffffffffffffffffffffff1916827bffffffffffffffffffffffffffffffffffffffffffffffffffffffff191614806107ee57507f5b5e139f000000000000000000000000000000000000000000000000000000007bffffffffffffffffffffffffffffffffffffffffffffffffffffffff1916827bffffffffffffffffffffffffffffffffffffffffffffffffffffffff1916145b806107fe57506107fd826121f9565b5b9050919050565b601360009054906101000a900473ffffffffffffffffffffffffffffffffffffffff1681565b60606000805461083a90614139565b80601f016020809104026020016040519081016040528092919081815260200182805461086690614139565b80156108b35780601f10610888576101008083540402835291602001916108b3565b820191906000526020600020905b81548152906001019060200180831161089657829003601f168201915b5050505050905090565b60006108c882612263565b6004600083815260200190815260200160002060009054906101000a900473ffffffffffffffffffffffffffffffffffffffff169050919050565b600061090e82611427565b90508073ffffffffffffffffffffffffffffffffffffffff168373ffffffffffffffffffffffffffffffffffffffff160361097e576040517f08c379a0000000000000000000000000000000000000000000000000000000008152600401610975906141dc565b60405180910390fd5b8073ffffffffffffffffffffffffffffffffffffffff1661099d6122ae565b73ffffffffffffffffffffffffffffffffffffffff1614806109cc57506109cb816109c66122ae565b611f67565b5b610a0b576040517f08c379a0000000000000000000000000000000000000000000000000000000008152600401610a029061426e565b60405180910390fd5b610a1583836122b6565b505050565b600063150b7a0260e01b9050949350505050565b3373ffffffffffffffffffffffffffffffffffffffff16610a4e82611427565b73ffffffffffffffffffffffffffffffffffffffff1614610aa4576040517f08c379a0000000000000000000000000000000000000000000000000000000008152600401610a9b906142da565b60405180910390fd5b60006015600083815260200190815260200160002090507f000000000000000000000000000000000000000000000000000000000000000073ffffffffffffffffffffffffffffffffffffffff1663a9059cbb3383600101546040518363ffffffff1660e01b8152600401610b1a9291906142fa565b6020604051808303816000875af1158015610b39573d6000803e3d6000fd5b505050506040513d601f19601f82011682018060405250810190610b5d9190614338565b507f094e34f3ac5c25baadabb9b729591fbba348a0168ac3ea181e7e2c29c117d0b9828260010154604051610b93929190614365565b60405180910390a15050565b606089897f000000000000000000000000000000000000000000000000000000000000000073ffffffffffffffffffffffffffffffffffffffff168273ffffffffffffffffffffffffffffffffffffffff1614610c28576040517fc1ab6dc100000000000000000000000000000000000000000000000000000000815260040160405180910390fd5b600760010160009054906101000a900473ffffffffffffffffffffffffffffffffffffffff1673ffffffffffffffffffffffffffffffffffffffff168173ffffffffffffffffffffffffffffffffffffffff1614610cb2576040517ffe1da89a00000000000000000000000000000000000000000000000000000000815260040160405180910390fd5b600760000160009054906101000a900473ffffffffffffffffffffffffffffffffffffffff1673ffffffffffffffffffffffffffffffffffffffff163373ffffffffffffffffffffffffffffffffffffffff1614610d3c576040517f82b4290000000000000000000000000000000000000000000000000000000000815260040160405180910390fd5b6000600760000160009054906101000a900473ffffffffffffffffffffffffffffffffffffffff1673ffffffffffffffffffffffffffffffffffffffff16633f6c923a87876040518363ffffffff1660e01b8152600401610d9e9291906143bb565b600060405180830381865afa158015610dbb573d6000803e3d6000fd5b505050506040513d6000823e3d601f19601f82011682018060405250810190610de4919061463f565b905080600960008201518160000160006101000a81548160ff021916908360ff16021790555060208201518160000160016101000a81548160ff021916908360ff1602179055506040820151816001015560608201518160020160006101000a81548173ffffffffffffffffffffffffffffffffffffffff021916908373ffffffffffffffffffffffffffffffffffffffff16021790555060808201518160020160146101000a81548163ffffffff021916908360e01c021790555060a0820151816003019080519060200190610ebc9291906133d4565b5060c0820151816004015560e0820151816005015561010082015181600601556101208201518160070160006101000a81548173ffffffffffffffffffffffffffffffffffffffff021916908373ffffffffffffffffffffffffffffffffffffffff1602179055506101408201518160080160006101000a81548173ffffffffffffffffffffffffffffffffffffffff021916908373ffffffffffffffffffffffffffffffffffffffff1602179055509050508060600151601260006101000a81548173ffffffffffffffffffffffffffffffffffffffff021916908373ffffffffffffffffffffffffffffffffffffffff1602179055506000600760010160009054906101000a900473ffffffffffffffffffffffffffffffffffffffff1673ffffffffffffffffffffffffffffffffffffffff1663e8e7e2d17f0000000000000000000000000000000000000000000000000000000000000000306040518363ffffffff1660e01b81526004016110369291906146a9565b602060405180830381865afa158015611053573d6000803e3d6000fd5b505050506040513d601f19601f8201168201806040525081019061107791906146e7565b90506110a581601260009054906101000a900473ffffffffffffffffffffffffffffffffffffffff1661236f565b86868080601f016020809104026020016040519081016040528093929190818152602001838380828437600081840152601f19601f820116905080830192505050505050509450505050509998505050505050505050565b61110e6111086122ae565b8261237d565b61114d576040517f08c379a000000000000000000000000000000000000000000000000000000000815260040161114490614786565b60405180910390fd5b611158838383612412565b505050565b60606040517f08c379a000000000000000000000000000000000000000000000000000000000815260040161119190614818565b60405180910390fd5b6111b5838383604051806020016040528060008152506118ab565b505050565b6060600760000160009054906101000a900473ffffffffffffffffffffffffffffffffffffffff1673ffffffffffffffffffffffffffffffffffffffff163373ffffffffffffffffffffffffffffffffffffffff1614611246576040517f82b4290000000000000000000000000000000000000000000000000000000000815260040160405180910390fd5b7f000000000000000000000000000000000000000000000000000000000000000073ffffffffffffffffffffffffffffffffffffffff168a73ffffffffffffffffffffffffffffffffffffffff161415806112f25750600760010160009054906101000a900473ffffffffffffffffffffffffffffffffffffffff1673ffffffffffffffffffffffffffffffffffffffff168973ffffffffffffffffffffffffffffffffffffffff1614155b156113435782828080601f016020809104026020016040519081016040528093929190818152602001838380828437600081840152601f19601f82011690508083019250505050505050905061138b565b82828080601f016020809104026020016040519081016040528093929190818152602001838380828437600081840152601f19601f8201169050808301925050505050505090505b9998505050505050505050565b60078060000160009054906101000a900473ffffffffffffffffffffffffffffffffffffffff16908060010160009054906101000a900473ffffffffffffffffffffffffffffffffffffffff16905082565b60606040517f08c379a000000000000000000000000000000000000000000000000000000000815260040161141e906148aa565b60405180910390fd5b6000806002600084815260200190815260200160002060009054906101000a900473ffffffffffffffffffffffffffffffffffffffff169050600073ffffffffffffffffffffffffffffffffffffffff168173ffffffffffffffffffffffffffffffffffffffff16036114cf576040517f08c379a00000000000000000000000000000000000000000000000000000000081526004016114c690614916565b60405180910390fd5b80915050919050565b601260009054906101000a900473ffffffffffffffffffffffffffffffffffffffff1681565b60008073ffffffffffffffffffffffffffffffffffffffff168273ffffffffffffffffffffffffffffffffffffffff160361156e576040517f08c379a0000000000000000000000000000000000000000000000000000000008152600401611565906149a8565b60405180910390fd5b600360008373ffffffffffffffffffffffffffffffffffffffff1673ffffffffffffffffffffffffffffffffffffffff168152602001908152602001600020549050919050565b6115bd612678565b6115c760006126f6565b565b60156020528060005260406000206000915090508060000160009054906101000a900460ff16908060000160019054906101000a900460ff16908060000160029054906101000a900460ff16908060010154905084565b60606040517f08c379a000000000000000000000000000000000000000000000000000000000815260040161165490614a3a565b60405180910390fd5b60008060019050606483600b0b13801561167c57506103e883600b0b13155b1561168a5760029050611704565b61271083600b0b1380156116a45750620186a083600b0b13155b156116b25760039050611703565b620f424083600b0b1380156116cd57506298968083600b0b13155b156116db5760059050611702565b6298968083600b0b1380156116f757506305f5e10083600b0b13155b1561170157600a90505b5b5b5b80915050919050565b6000600660009054906101000a900473ffffffffffffffffffffffffffffffffffffffff16905090565b60606001805461174690614139565b80601f016020809104026020016040519081016040528092919081815260200182805461177290614139565b80156117bf5780601f10611794576101008083540402835291602001916117bf565b820191906000526020600020905b8154815290600101906020018083116117a257829003601f168201915b5050505050905090565b6117db6117d46122ae565b83836127bc565b5050565b601681815481106117ef57600080fd5b906000526020600020016000915054906101000a900473ffffffffffffffffffffffffffffffffffffffff1681565b6000600a4361182d9190614a89565b905090565b61183a612678565b600061184660146121d5565b905061185260146121e3565b61185c3082612928565b7f32d7f94c936bc8db194cf4901b351fa2039969759b6e5799ca627b22961c77a4308260008086604051611894959493929190614af5565b60405180910390a16118a7818330612b01565b5050565b6118bc6118b66122ae565b8361237d565b6118fb576040517f08c379a00000000000000000000000000000000000000000000000000000000081526004016118f290614786565b60405180910390fd5b61190784848484612b65565b50505050565b606061191882612263565b6000611922612bc1565b90506000815111611942576040518060200160405280600081525061196d565b8061194c84612bd8565b60405160200161195d929190614b84565b6040516020818303038152906040525b915050919050565b606089897f000000000000000000000000000000000000000000000000000000000000000073ffffffffffffffffffffffffffffffffffffffff168273ffffffffffffffffffffffffffffffffffffffff16146119fe576040517fc1ab6dc100000000000000000000000000000000000000000000000000000000815260040160405180910390fd5b600760010160009054906101000a900473ffffffffffffffffffffffffffffffffffffffff1673ffffffffffffffffffffffffffffffffffffffff168173ffffffffffffffffffffffffffffffffffffffff1614611a88576040517ffe1da89a00000000000000000000000000000000000000000000000000000000815260040160405180910390fd5b600760000160009054906101000a900473ffffffffffffffffffffffffffffffffffffffff1673ffffffffffffffffffffffffffffffffffffffff163373ffffffffffffffffffffffffffffffffffffffff1614611b12576040517f82b4290000000000000000000000000000000000000000000000000000000000815260040160405180910390fd5b6000600760000160009054906101000a900473ffffffffffffffffffffffffffffffffffffffff1673ffffffffffffffffffffffffffffffffffffffff16633f6c923a87876040518363ffffffff1660e01b8152600401611b749291906143bb565b600060405180830381865afa158015611b91573d6000803e3d6000fd5b505050506040513d6000823e3d601f19601f82011682018060405250810190611bba919061463f565b905080600960008201518160000160006101000a81548160ff021916908360ff16021790555060208201518160000160016101000a81548160ff021916908360ff1602179055506040820151816001015560608201518160020160006101000a81548173ffffffffffffffffffffffffffffffffffffffff021916908373ffffffffffffffffffffffffffffffffffffffff16021790555060808201518160020160146101000a81548163ffffffff021916908360e01c021790555060a0820151816003019080519060200190611c929291906133d4565b5060c0820151816004015560e0820151816005015561010082015181600601556101208201518160070160006101000a81548173ffffffffffffffffffffffffffffffffffffffff021916908373ffffffffffffffffffffffffffffffffffffffff1602179055506101408201518160080160006101000a81548173ffffffffffffffffffffffffffffffffffffffff021916908373ffffffffffffffffffffffffffffffffffffffff1602179055509050508060600151601260006101000a81548173ffffffffffffffffffffffffffffffffffffffff021916908373ffffffffffffffffffffffffffffffffffffffff1602179055506000600760010160009054906101000a900473ffffffffffffffffffffffffffffffffffffffff1673ffffffffffffffffffffffffffffffffffffffff1663e8e7e2d17f0000000000000000000000000000000000000000000000000000000000000000306040518363ffffffff1660e01b8152600401611e0c9291906146a9565b602060405180830381865afa158015611e29573d6000803e3d6000fd5b505050506040513d601f19601f82011682018060405250810190611e4d91906146e7565b9050611e7b81601260009054906101000a900473ffffffffffffffffffffffffffffffffffffffff1661236f565b86868080601f016020809104026020016040519081016040528093929190818152602001838380828437600081840152601f19601f820116905080830192505050505050509450505050509998505050505050505050565b611edb61345a565b6000601560008481526020019081526020016000206040518060800160405290816000820160009054906101000a900460ff1660ff1660ff1681526020016000820160019054906101000a900460ff1660ff1660ff1681526020016000820160029054906101000a900460ff1660ff1660ff168152602001600182015481525050905080915050919050565b6000600560008473ffffffffffffffffffffffffffffffffffffffff1673ffffffffffffffffffffffffffffffffffffffff16815260200190815260200160002060008373ffffffffffffffffffffffffffffffffffffffff1673ffffffffffffffffffffffffffffffffffffffff16815260200190815260200160002060009054906101000a900460ff16905092915050565b60098060000160009054906101000a900460ff16908060000160019054906101000a900460ff16908060010154908060020160009054906101000a900473ffffffffffffffffffffffffffffffffffffffff16908060020160149054906101000a900460e01b9080600301805461207190614139565b80601f016020809104026020016040519081016040528092919081815260200182805461209d90614139565b80156120ea5780601f106120bf576101008083540402835291602001916120ea565b820191906000526020600020905b8154815290600101906020018083116120cd57829003601f168201915b5050505050908060040154908060050154908060060154908060070160009054906101000a900473ffffffffffffffffffffffffffffffffffffffff16908060080160009054906101000a900473ffffffffffffffffffffffffffffffffffffffff1690508b565b61215a612678565b600073ffffffffffffffffffffffffffffffffffffffff168173ffffffffffffffffffffffffffffffffffffffff16036121c9576040517f08c379a00000000000000000000000000000000000000000000000000000000081526004016121c090614c1a565b60405180910390fd5b6121d2816126f6565b50565b600081600001549050919050565b6001816000016000828254019250508190555050565b60007f01ffc9a7000000000000000000000000000000000000000000000000000000007bffffffffffffffffffffffffffffffffffffffffffffffffffffffff1916827bffffffffffffffffffffffffffffffffffffffffffffffffffffffff1916149050919050565b61226c81612d38565b6122ab576040517f08c379a00000000000000000000000000000000000000000000000000000000081526004016122a290614916565b60405180910390fd5b50565b600033905090565b816004600083815260200190815260200160002060006101000a81548173ffffffffffffffffffffffffffffffffffffffff021916908373ffffffffffffffffffffffffffffffffffffffff160217905550808273ffffffffffffffffffffffffffffffffffffffff1661232983611427565b73ffffffffffffffffffffffffffffffffffffffff167f8c5be1e5ebec7d5bd14f71427d1e84f3dd0314c0f7b2291e5b200ac8c7c3b92560405160405180910390a45050565b6123798282612da4565b5050565b60008061238983611427565b90508073ffffffffffffffffffffffffffffffffffffffff168473ffffffffffffffffffffffffffffffffffffffff1614806123cb57506123ca8185611f67565b5b8061240957508373ffffffffffffffffffffffffffffffffffffffff166123f1846108bd565b73ffffffffffffffffffffffffffffffffffffffff16145b91505092915050565b8273ffffffffffffffffffffffffffffffffffffffff1661243282611427565b73ffffffffffffffffffffffffffffffffffffffff1614612488576040517f08c379a000000000000000000000000000000000000000000000000000000000815260040161247f90614cac565b60405180910390fd5b600073ffffffffffffffffffffffffffffffffffffffff168273ffffffffffffffffffffffffffffffffffffffff16036124f7576040517f08c379a00000000000000000000000000000000000000000000000000000000081526004016124ee90614d3e565b60405180910390fd5b612502838383613220565b61250d6000826122b6565b6001600360008573ffffffffffffffffffffffffffffffffffffffff1673ffffffffffffffffffffffffffffffffffffffff168152602001908152602001600020600082825461255d9190614d8d565b925050819055506001600360008473ffffffffffffffffffffffffffffffffffffffff1673ffffffffffffffffffffffffffffffffffffffff16815260200190815260200160002060008282546125b49190614dc1565b92505081905550816002600083815260200190815260200160002060006101000a81548173ffffffffffffffffffffffffffffffffffffffff021916908373ffffffffffffffffffffffffffffffffffffffff160217905550808273ffffffffffffffffffffffffffffffffffffffff168473ffffffffffffffffffffffffffffffffffffffff167fddf252ad1be2c89b69c2b068fc378daa952ba7f163c4a11628f55a4df523b3ef60405160405180910390a4612673838383613225565b505050565b6126806122ae565b73ffffffffffffffffffffffffffffffffffffffff1661269e61170d565b73ffffffffffffffffffffffffffffffffffffffff16146126f4576040517f08c379a00000000000000000000000000000000000000000000000000000000081526004016126eb90614e63565b60405180910390fd5b565b6000600660009054906101000a900473ffffffffffffffffffffffffffffffffffffffff16905081600660006101000a81548173ffffffffffffffffffffffffffffffffffffffff021916908373ffffffffffffffffffffffffffffffffffffffff1602179055508173ffffffffffffffffffffffffffffffffffffffff168173ffffffffffffffffffffffffffffffffffffffff167f8be0079c531659141344cd1fd0a4f28419497f9722a3daafe3b4186f6b6457e060405160405180910390a35050565b8173ffffffffffffffffffffffffffffffffffffffff168373ffffffffffffffffffffffffffffffffffffffff160361282a576040517f08c379a000000000000000000000000000000000000000000000000000000000815260040161282190614ecf565b60405180910390fd5b80600560008573ffffffffffffffffffffffffffffffffffffffff1673ffffffffffffffffffffffffffffffffffffffff16815260200190815260200160002060008473ffffffffffffffffffffffffffffffffffffffff1673ffffffffffffffffffffffffffffffffffffffff16815260200190815260200160002060006101000a81548160ff0219169083151502179055508173ffffffffffffffffffffffffffffffffffffffff168373ffffffffffffffffffffffffffffffffffffffff167f17307eab39ab6107e8899845ad3d59bd9653f200f220920489ca2b5937696c318360405161291b919061357d565b60405180910390a3505050565b600073ffffffffffffffffffffffffffffffffffffffff168273ffffffffffffffffffffffffffffffffffffffff1603612997576040517f08c379a000000000000000000000000000000000000000000000000000000000815260040161298e90614f3b565b60405180910390fd5b6129a081612d38565b156129e0576040517f08c379a00000000000000000000000000000000000000000000000000000000081526004016129d790614fa7565b60405180910390fd5b6129ec60008383613220565b6001600360008473ffffffffffffffffffffffffffffffffffffffff1673ffffffffffffffffffffffffffffffffffffffff1681526020019081526020016000206000828254612a3c9190614dc1565b92505081905550816002600083815260200190815260200160002060006101000a81548173ffffffffffffffffffffffffffffffffffffffff021916908373ffffffffffffffffffffffffffffffffffffffff160217905550808273ffffffffffffffffffffffffffffffffffffffff16600073ffffffffffffffffffffffffffffffffffffffff167fddf252ad1be2c89b69c2b068fc378daa952ba7f163c4a11628f55a4df523b3ef60405160405180910390a4612afd60008383613225565b5050565b60006015600085815260200190815260200160002060000160006101000a81548160ff021916908360ff160217905550816015600085815260200190815260200160002060000160016101000a81548160ff021916908360ff160217905550505050565b612b70848484612412565b612b7c8484848461322a565b612bbb576040517f08c379a0000000000000000000000000000000000000000000000000000000008152600401612bb290615039565b60405180910390fd5b50505050565b606060405180602001604052806000815250905090565b606060008203612c1f576040518060400160405280600181526020017f30000000000000000000000000000000000000000000000000000000000000008152509050612d33565b600082905060005b60008214612c51578080612c3a90615059565b915050600a82612c4a91906150a1565b9150612c27565b60008167ffffffffffffffff811115612c6d57612c6c613788565b5b6040519080825280601f01601f191660200182016040528015612c9f5781602001600182028036833780820191505090505b5090505b60008514612d2c57600182612cb89190614d8d565b9150600a85612cc79190614a89565b6030612cd39190614dc1565b60f81b818381518110612ce957612ce86150d2565b5b60200101907effffffffffffffffffffffffffffffffffffffffffffffffffffffffffffff1916908160001a905350600a85612d2591906150a1565b9450612ca3565b8093505050505b919050565b60008073ffffffffffffffffffffffffffffffffffffffff166002600084815260200190815260200160002060009054906101000a900473ffffffffffffffffffffffffffffffffffffffff1673ffffffffffffffffffffffffffffffffffffffff1614159050919050565b60006001612db260146121d5565b612dbc9190614d8d565b9050600060156000838152602001908152602001600020905060008160000160029054906101000a900460ff1660ff1614612e2c576040517f08c379a0000000000000000000000000000000000000000000000000000000008152600401612e239061514d565b60405180910390fd5b6000612e378561165d565b90506000612e4361181e565b82612e4e919061516d565b9050806015600086815260200190815260200160002060000160009054906101000a900460ff16612e7f91906151a8565b8360000160006101000a81548160ff021916908360ff1602179055507f32d7f94c936bc8db194cf4901b351fa2039969759b6e5799ca627b22961c77a48585838660000160009054906101000a900460ff16601560008a815260200190815260200160002060000160019054906101000a900460ff16604051612f06959493929190615210565b60405180910390a16018548260ff161115612fa05760006016805490501115612f385760166000612f37919061348b565b5b6016859080600181540180825580915050600190039060005260206000200160009091909190916101000a81548173ffffffffffffffffffffffffffffffffffffffff021916908373ffffffffffffffffffffffffffffffffffffffff160217905550613011565b6018548260ff1603613010576016859080600181540180825580915050600190039060005260206000200160009091909190916101000a81548173ffffffffffffffffffffffffffffffffffffffff021916908373ffffffffffffffffffffffffffffffffffffffff1602179055505b5b8260000160019054906101000a900460ff1660ff168360000160009054906101000a900460ff1660ff16106132185760018360000160026101000a81548160ff021916908360ff16021790555060007f000000000000000000000000000000000000000000000000000000000000000073ffffffffffffffffffffffffffffffffffffffff166370a08231306040518263ffffffff1660e01b81526004016130b991906135d9565b602060405180830381865afa1580156130d6573d6000803e3d6000fd5b505050506040513d601f19601f820116820180604052508101906130fa9190615263565b90506017548161310a9190614d8d565b8460010181905550806017819055506001601854031561321657613182601660008154811061313c5761313b6150d2565b5b9060005260206000200160009054906101000a900473ffffffffffffffffffffffffffffffffffffffff16600161317360146121d5565b61317d9190614d8d565b6122b6565b7f83180aa4ac63459a0857ee4be800e29aa03c2426bdb949e15826b88ef0c668a260166000815481106131b8576131b76150d2565b5b9060005260206000200160009054906101000a900473ffffffffffffffffffffffffffffffffffffffff1660016131ef60146121d5565b6131f99190614d8d565b866001015460405161320d93929190615290565b60405180910390a15b505b505050505050565b505050565b505050565b600061324b8473ffffffffffffffffffffffffffffffffffffffff166133b1565b156133a4578373ffffffffffffffffffffffffffffffffffffffff1663150b7a026132746122ae565b8786866040518563ffffffff1660e01b815260040161329694939291906152c7565b6020604051808303816000875af19250505080156132d257506040513d601f19601f820116820180604052508101906132cf9190615313565b60015b613354573d8060008114613302576040519150601f19603f3d011682016040523d82523d6000602084013e613307565b606091505b50600081510361334c576040517f08c379a000000000000000000000000000000000000000000000000000000000815260040161334390615039565b60405180910390fd5b805181602001fd5b63150b7a0260e01b7bffffffffffffffffffffffffffffffffffffffffffffffffffffffff1916817bffffffffffffffffffffffffffffffffffffffffffffffffffffffff1916149150506133a9565b600190505b949350505050565b6000808273ffffffffffffffffffffffffffffffffffffffff163b119050919050565b8280546133e090614139565b90600052602060002090601f0160209004810192826134025760008555613449565b82601f1061341b57805160ff1916838001178555613449565b82800160010185558215613449579182015b8281111561344857825182559160200191906001019061342d565b5b50905061345691906134ac565b5090565b6040518060800160405280600060ff168152602001600060ff168152602001600060ff168152602001600081525090565b50805460008255906000526020600020908101906134a991906134ac565b50565b5b808211156134c55760008160009055506001016134ad565b5090565b6000604051905090565b600080fd5b600080fd5b60007fffffffff0000000000000000000000000000000000000000000000000000000082169050919050565b613512816134dd565b811461351d57600080fd5b50565b60008135905061352f81613509565b92915050565b60006020828403121561354b5761354a6134d3565b5b600061355984828501613520565b91505092915050565b60008115159050919050565b61357781613562565b82525050565b6000602082019050613592600083018461356e565b92915050565b600073ffffffffffffffffffffffffffffffffffffffff82169050919050565b60006135c382613598565b9050919050565b6135d3816135b8565b82525050565b60006020820190506135ee60008301846135ca565b92915050565b600081519050919050565b600082825260208201905092915050565b60005b8381101561362e578082015181840152602081019050613613565b8381111561363d576000848401525b50505050565b6000601f19601f8301169050919050565b600061365f826135f4565b61366981856135ff565b9350613679818560208601613610565b61368281613643565b840191505092915050565b600060208201905081810360008301526136a78184613654565b905092915050565b6000819050919050565b6136c2816136af565b81146136cd57600080fd5b50565b6000813590506136df816136b9565b92915050565b6000602082840312156136fb576136fa6134d3565b5b6000613709848285016136d0565b91505092915050565b61371b816135b8565b811461372657600080fd5b50565b60008135905061373881613712565b92915050565b60008060408385031215613755576137546134d3565b5b600061376385828601613729565b9250506020613774858286016136d0565b9150509250929050565b600080fd5b600080fd5b7f4e487b7100000000000000000000000000000000000000000000000000000000600052604160045260246000fd5b6137c082613643565b810181811067ffffffffffffffff821117156137df576137de613788565b5b80604052505050565b60006137f26134c9565b90506137fe82826137b7565b919050565b600067ffffffffffffffff82111561381e5761381d613788565b5b61382782613643565b9050602081019050919050565b82818337600083830152505050565b600061385661385184613803565b6137e8565b90508281526020810184848401111561387257613871613783565b5b61387d848285613834565b509392505050565b600082601f83011261389a5761389961377e565b5b81356138aa848260208601613843565b91505092915050565b600080600080608085870312156138cd576138cc6134d3565b5b60006138db87828801613729565b94505060206138ec87828801613729565b93505060406138fd878288016136d0565b925050606085013567ffffffffffffffff81111561391e5761391d6134d8565b5b61392a87828801613885565b91505092959194509250565b61393f816134dd565b82525050565b600060208201905061395a6000830184613936565b92915050565b600061396b826135b8565b9050919050565b61397b81613960565b811461398657600080fd5b50565b60008135905061399881613972565b92915050565b6000819050919050565b6139b18161399e565b81146139bc57600080fd5b50565b6000813590506139ce816139a8565b92915050565b600080fd5b600080fd5b60008083601f8401126139f4576139f361377e565b5b8235905067ffffffffffffffff811115613a1157613a106139d4565b5b602083019150836001820283011115613a2d57613a2c6139d9565b5b9250929050565b600080600080600080600080600060c08a8c031215613a5657613a556134d3565b5b6000613a648c828d01613989565b9950506020613a758c828d01613729565b9850506040613a868c828d016139bf565b97505060608a013567ffffffffffffffff811115613aa757613aa66134d8565b5b613ab38c828d016139de565b965096505060808a013567ffffffffffffffff811115613ad657613ad56134d8565b5b613ae28c828d016139de565b945094505060a08a013567ffffffffffffffff811115613b0557613b046134d8565b5b613b118c828d016139de565b92509250509295985092959850929598565b600081519050919050565b600082825260208201905092915050565b6000613b4a82613b23565b613b548185613b2e565b9350613b64818560208601613610565b613b6d81613643565b840191505092915050565b60006020820190508181036000830152613b928184613b3f565b905092915050565b600080600060608486031215613bb357613bb26134d3565b5b6000613bc186828701613729565b9350506020613bd286828701613729565b9250506040613be3868287016136d0565b9150509250925092565b600080600080600080600060a0888a031215613c0c57613c0b6134d3565b5b6000613c1a8a828b01613989565b9750506020613c2b8a828b01613729565b9650506040613c3c8a828b016139bf565b955050606088013567ffffffffffffffff811115613c5d57613c5c6134d8565b5b613c698a828b016139de565b9450945050608088013567ffffffffffffffff811115613c8c57613c8b6134d8565b5b613c988a828b016139de565b925092505092959891949750929550565b6000819050919050565b6000613cce613cc9613cc484613598565b613ca9565b613598565b9050919050565b6000613ce082613cb3565b9050919050565b6000613cf282613cd5565b9050919050565b613d0281613ce7565b82525050565b6000613d1382613cd5565b9050919050565b613d2381613d08565b82525050565b6000604082019050613d3e6000830185613cf9565b613d4b6020830184613d1a565b9392505050565b600060208284031215613d6857613d676134d3565b5b6000613d7684828501613729565b91505092915050565b613d88816136af565b82525050565b6000602082019050613da36000830184613d7f565b92915050565b600060ff82169050919050565b613dbf81613da9565b82525050565b6000608082019050613dda6000830187613db6565b613de76020830186613db6565b613df46040830185613db6565b613e016060830184613d7f565b95945050505050565b600081600b0b9050919050565b613e2081613e0a565b8114613e2b57600080fd5b50565b600081359050613e3d81613e17565b92915050565b600060208284031215613e5957613e586134d3565b5b6000613e6784828501613e2e565b91505092915050565b6000602082019050613e856000830184613db6565b92915050565b613e9481613562565b8114613e9f57600080fd5b50565b600081359050613eb181613e8b565b92915050565b60008060408385031215613ece57613ecd6134d3565b5b6000613edc85828601613729565b9250506020613eed85828601613ea2565b9150509250929050565b613f0081613da9565b8114613f0b57600080fd5b50565b600081359050613f1d81613ef7565b92915050565b600060208284031215613f3957613f386134d3565b5b6000613f4784828501613f0e565b91505092915050565b613f5981613da9565b82525050565b613f68816136af565b82525050565b608082016000820151613f846000850182613f50565b506020820151613f976020850182613f50565b506040820151613faa6040850182613f50565b506060820151613fbd6060850182613f5f565b50505050565b6000608082019050613fd86000830184613f6e565b92915050565b60008060408385031215613ff557613ff46134d3565b5b600061400385828601613729565b925050602061401485828601613729565b9150509250929050565b6000819050919050565b6140318161401e565b82525050565b600061404282613cd5565b9050919050565b61405281614037565b82525050565b60006101608201905061406e600083018e613db6565b61407b602083018d613db6565b614088604083018c613d7f565b614095606083018b6135ca565b6140a2608083018a613936565b81810360a08301526140b48189613b3f565b90506140c360c0830188613d7f565b6140d060e0830187613d7f565b6140de610100830186614028565b6140ec6101208301856135ca565b6140fa610140830184614049565b9c9b505050505050505050505050565b7f4e487b7100000000000000000000000000000000000000000000000000000000600052602260045260246000fd5b6000600282049050600182168061415157607f821691505b6020821081036141645761416361410a565b5b50919050565b7f4552433732313a20617070726f76616c20746f2063757272656e74206f776e6560008201527f7200000000000000000000000000000000000000000000000000000000000000602082015250565b60006141c66021836135ff565b91506141d18261416a565b604082019050919050565b600060208201905081810360008301526141f5816141b9565b9050919050565b7f4552433732313a20617070726f76652063616c6c6572206973206e6f7420746f60008201527f6b656e206f776e6572206e6f7220617070726f76656420666f7220616c6c0000602082015250565b6000614258603e836135ff565b9150614263826141fc565b604082019050919050565b600060208201905081810360008301526142878161424b565b9050919050565b7f4e6f74204152424f2067617264656e6572210000000000000000000000000000600082015250565b60006142c46012836135ff565b91506142cf8261428e565b602082019050919050565b600060208201905081810360008301526142f3816142b7565b9050919050565b600060408201905061430f60008301856135ca565b61431c6020830184613d7f565b9392505050565b60008151905061433281613e8b565b92915050565b60006020828403121561434e5761434d6134d3565b5b600061435c84828501614323565b91505092915050565b600060408201905061437a6000830185613d7f565b6143876020830184613d7f565b9392505050565b600061439a8385613b2e565b93506143a7838584613834565b6143b083613643565b840190509392505050565b600060208201905081810360008301526143d681848661438e565b90509392505050565b600080fd5b600080fd5b6000815190506143f881613ef7565b92915050565b60008151905061440d816136b9565b92915050565b60008151905061442281613712565b92915050565b60008151905061443781613509565b92915050565b600061445061444b84613803565b6137e8565b90508281526020810184848401111561446c5761446b613783565b5b614477848285613610565b509392505050565b600082601f8301126144945761449361377e565b5b81516144a484826020860161443d565b91505092915050565b6144b68161401e565b81146144c157600080fd5b50565b6000815190506144d3816144ad565b92915050565b60006144e4826135b8565b9050919050565b6144f4816144d9565b81146144ff57600080fd5b50565b600081519050614511816144eb565b92915050565b6000610160828403121561452e5761452d6143df565b5b6145396101606137e8565b90506000614549848285016143e9565b600083015250602061455d848285016143e9565b6020830152506040614571848285016143fe565b604083015250606061458584828501614413565b606083015250608061459984828501614428565b60808301525060a082015167ffffffffffffffff8111156145bd576145bc6143e4565b5b6145c98482850161447f565b60a08301525060c06145dd848285016143fe565b60c08301525060e06145f1848285016143fe565b60e083015250610100614606848285016144c4565b6101008301525061012061461c84828501614413565b6101208301525061014061463284828501614502565b6101408301525092915050565b600060208284031215614655576146546134d3565b5b600082015167ffffffffffffffff811115614673576146726134d8565b5b61467f84828501614517565b91505092915050565b600061469382613cd5565b9050919050565b6146a381614688565b82525050565b60006040820190506146be600083018561469a565b6146cb60208301846135ca565b9392505050565b6000815190506146e181613e17565b92915050565b6000602082840312156146fd576146fc6134d3565b5b600061470b848285016146d2565b91505092915050565b7f4552433732313a2063616c6c6572206973206e6f7420746f6b656e206f776e6560008201527f72206e6f7220617070726f766564000000000000000000000000000000000000602082015250565b6000614770602e836135ff565b915061477b82614714565b604082019050919050565b6000602082019050818103600083015261479f81614763565b9050919050565b7f556e737570706f727465642063616c6c6261636b202d204265666f726520416760008201527f7265656d656e7420437265617465640000000000000000000000000000000000602082015250565b6000614802602f836135ff565b915061480d826147a6565b604082019050919050565b60006020820190508181036000830152614831816147f5565b9050919050565b7f556e737570706f727465642063616c6c6261636b202d20204265666f7265204160008201527f677265656d656e74205465726d696e6174656400000000000000000000000000602082015250565b60006148946033836135ff565b915061489f82614838565b604082019050919050565b600060208201905081810360008301526148c381614887565b9050919050565b7f4552433732313a20696e76616c696420746f6b656e2049440000000000000000600082015250565b60006149006018836135ff565b915061490b826148ca565b602082019050919050565b6000602082019050818103600083015261492f816148f3565b9050919050565b7f4552433732313a2061646472657373207a65726f206973206e6f74206120766160008201527f6c6964206f776e65720000000000000000000000000000000000000000000000602082015250565b60006149926029836135ff565b915061499d82614936565b604082019050919050565b600060208201905081810360008301526149c181614985565b9050919050565b7f556e737570706f727465642063616c6c6261636b202d204265666f726520416760008201527f7265656d656e7420757064617465640000000000000000000000000000000000602082015250565b6000614a24602f836135ff565b9150614a2f826149c8565b604082019050919050565b60006020820190508181036000830152614a5381614a17565b9050919050565b7f4e487b7100000000000000000000000000000000000000000000000000000000600052601260045260246000fd5b6000614a94826136af565b9150614a9f836136af565b925082614aaf57614aae614a5a565b5b828206905092915050565b6000819050919050565b6000614adf614ada614ad584614aba565b613ca9565b6136af565b9050919050565b614aef81614ac4565b82525050565b600060a082019050614b0a60008301886135ca565b614b176020830187613d7f565b614b246040830186614ae6565b614b316060830185614ae6565b614b3e6080830184613db6565b9695505050505050565b600081905092915050565b6000614b5e826135f4565b614b688185614b48565b9350614b78818560208601613610565b80840191505092915050565b6000614b908285614b53565b9150614b9c8284614b53565b91508190509392505050565b7f4f776e61626c653a206e6577206f776e657220697320746865207a65726f206160008201527f6464726573730000000000000000000000000000000000000000000000000000602082015250565b6000614c046026836135ff565b9150614c0f82614ba8565b604082019050919050565b60006020820190508181036000830152614c3381614bf7565b9050919050565b7f4552433732313a207472616e736665722066726f6d20696e636f72726563742060008201527f6f776e6572000000000000000000000000000000000000000000000000000000602082015250565b6000614c966025836135ff565b9150614ca182614c3a565b604082019050919050565b60006020820190508181036000830152614cc581614c89565b9050919050565b7f4552433732313a207472616e7366657220746f20746865207a65726f2061646460008201527f7265737300000000000000000000000000000000000000000000000000000000602082015250565b6000614d286024836135ff565b9150614d3382614ccc565b604082019050919050565b60006020820190508181036000830152614d5781614d1b565b9050919050565b7f4e487b7100000000000000000000000000000000000000000000000000000000600052601160045260246000fd5b6000614d98826136af565b9150614da3836136af565b925082821015614db657614db5614d5e565b5b828203905092915050565b6000614dcc826136af565b9150614dd7836136af565b9250827fffffffffffffffffffffffffffffffffffffffffffffffffffffffffffffffff03821115614e0c57614e0b614d5e565b5b828201905092915050565b7f4f776e61626c653a2063616c6c6572206973206e6f7420746865206f776e6572600082015250565b6000614e4d6020836135ff565b9150614e5882614e17565b602082019050919050565b60006020820190508181036000830152614e7c81614e40565b9050919050565b7f4552433732313a20617070726f766520746f2063616c6c657200000000000000600082015250565b6000614eb96019836135ff565b9150614ec482614e83565b602082019050919050565b60006020820190508181036000830152614ee881614eac565b9050919050565b7f4552433732313a206d696e7420746f20746865207a65726f2061646472657373600082015250565b6000614f256020836135ff565b9150614f3082614eef565b602082019050919050565b60006020820190508181036000830152614f5481614f18565b9050919050565b7f4552433732313a20746f6b656e20616c7265616479206d696e74656400000000600082015250565b6000614f91601c836135ff565b9150614f9c82614f5b565b602082019050919050565b60006020820190508181036000830152614fc081614f84565b9050919050565b7f4552433732313a207472616e7366657220746f206e6f6e20455243373231526560008201527f63656976657220696d706c656d656e7465720000000000000000000000000000602082015250565b60006150236032836135ff565b915061502e82614fc7565b604082019050919050565b6000602082019050818103600083015261505281615016565b9050919050565b6000615064826136af565b91507fffffffffffffffffffffffffffffffffffffffffffffffffffffffffffffffff820361509657615095614d5e565b5b600182019050919050565b60006150ac826136af565b91506150b7836136af565b9250826150c7576150c6614a5a565b5b828204905092915050565b7f4e487b7100000000000000000000000000000000000000000000000000000000600052603260045260246000fd5b7f54686973204152424f20697320616c72656164792067726f776e210000000000600082015250565b6000615137601b836135ff565b915061514282615101565b602082019050919050565b600060208201905081810360008301526151668161512a565b9050919050565b600061517882613da9565b915061518383613da9565b92508160ff048311821515161561519d5761519c614d5e565b5b828202905092915050565b60006151b382613da9565b91506151be83613da9565b92508260ff038211156151d4576151d3614d5e565b5b828201905092915050565b60006151fa6151f56151f084613da9565b613ca9565b6136af565b9050919050565b61520a816151df565b82525050565b600060a08201905061522560008301886135ca565b6152326020830187613d7f565b61523f6040830186615201565b61524c6060830185615201565b6152596080830184613db6565b9695505050505050565b600060208284031215615279576152786134d3565b5b6000615287848285016143fe565b91505092915050565b60006060820190506152a560008301866135ca565b6152b26020830185613d7f565b6152bf6040830184613d7f565b949350505050565b60006080820190506152dc60008301876135ca565b6152e960208301866135ca565b6152f66040830185613d7f565b81810360608301526153088184613b3f565b905095945050505050565b600060208284031215615329576153286134d3565b5b600061533784828501614428565b9150509291505056fea26469706673582212201ea41ef09c86cc2eb610fca06c9f2aedea5cc3bc061e4bff0ebdd6f4224a827764736f6c634300080d0033",
  "linkReferences": {},
  "deployedLinkReferences": {}
}